:100000000C94EC000C940D010C940D010C940D015A
:100010000C940D010C940D010C940D010C940D0128
:100020000C940D010C940D010C940D010C940D0118
:100030000C940D010C940D010C940D010C940D0108
:100040000C940D010C940D010C940D010C940D01F8
:100050000C940D010C940D010C940D010C940D01E8
:100060000C940D010C940D010C940D010C940D01D8
:100070000C940D010C940D010C940D010C940D01C8
:100080000C940D010C940D010C940D010C940D01B8
:100090000C940D010C940D010C940D010C940D01A8
:1000A0000C940D010C940D010C940D010C940D0198
:1000B0000C940D010C940D010C940D010C940D0188
:1000C0000C940D010C940D010C940D010C940D0178
:1000D0000C940D010C940D010C940D010C940D0168
:1000E0000C940D010C941B010C9423010C9434010D
:1000F0006364696E6F70737578585B004A756E65DE
:10010000004D617900417072696C004D61726368E5
:10011000004665627275617279004A616E7561723E
:1001200079001A0111010B0105010101FC00456E66
:10013000746572204D6F6E7468206D616E65206607
:1001400069727374206C6574746572203E004D6131
:1001500072656B20C396C3B676656C004D6172659F
:100160006B20C396C3B676656C0A00312E382E30EC
:1001700073766E006176722D6C69626320766572AB
:1001800073696F6E3A2025530A0032303A31383A9B
:10019000323700446563202031203230313600652B
:1001A00078616D706C655461672D33352D673064EF
:1001B000336532622D6469727479005665727369B1
:1001C0006F6E3A202573206275696C74206F6E3AE9
:1001D0002025532025530A0011241FBECFEFD1E262
:1001E000DEBFCDBF00E00CBF12E0A0E0B2E0E0E671
:1001F000F4E100E00BBF02C007900D92A033B107FD
:10020000D9F722E0A0E3B2E001C01D92A633B20705
:10021000E1F70E94C9010C942E0A0C940000E2E060
:10022000F1E08081806480830895E2E0F1E08081E4
:100230008F7B808308958091C00087FFFCCF8091E1
:10024000C60090E00895CF93C82F8A3019F48DE04E
:100250000E9423018091300185FFFCCFC0933601BD
:1002600080E090E0CF910895CF93C82F8A3019F4A1
:100270008DE00E9434018091C00085FFFCCFC093C7
:10028000C60080E090E0CF910895CF93DF93C82F10
:10029000D62F80910201662311F0806201C08F7D0C
:1002A0008093020180910201C7FF02C0806101C0FA
:1002B0008F7E8093020180910201C6FF02C0886098
:1002C00001C0877F80930201C5FF02C0739A01C0FD
:1002D0007398C4FF02C0A59A01C0A59800C00E94EF
:1002E0000F0182E08A95F1F700C00E94150180910C
:1002F0000201C3FF02C0806101C08F7E80930201B2
:1003000080910201C2FF02C0886001C0877F809394
:100310000201C1FF02C0739A01C07398C0FF02C0FE
:10032000A59A01C0A59800C00E940F0192E09A957D
:10033000F1F700C00E941501809102018061809355
:10034000020180910201886080930201739AA59A4C
:10035000D11108C0C43030F48FE999E10197F1F769
:1003600000C003C095ED9A95F1F70000DF91CF91A1
:100370000895CF93DF93FC018491EF0121968823A8
:1003800029F061E00E944501FE01F6CFDF91CF9197
:100390000895CF93DF93CDB7DEB7C158D1090FB61B
:1003A000F894DEBF0FBECDBF0B9A1092C50027E6B2
:1003B0002093C4008091C0008D7F8093C00096E0A0
:1003C0009093C20088E18093C10010923501209380
:1003D0003401809130018D7F809330019093320100
:1003E00088E0809331018091010180648093010154
:1003F00080910101806280930101809101018061FF
:1004000080930101809101018860809301016B9AC2
:100410009D9A0E941501809102018F7D80930201B7
:1004200080910201806180930201809102018860C5
:1004300080930201739AA59A8FE59AEE0197F1F7DE
:1004400000C00000809102018F7E809302018091A4
:100450000201877F8093020100C00E940F0192E099
:100460009A95F1F700C00E941501AFE0B0E4119732
:10047000F1F700C000000E940F01B2E0BA95F1F759
:1004800000C00E941501EFE8F1E03197F1F700C0DC
:1004900000000E940F01F2E0FA95F1F700C00E94FF
:1004A000150185ED8A95F1F70000A59800C00E941E
:1004B0000F0192E09A95F1F700C00E941501A5ED99
:1004C000AA95F1F70000A59800C00E940F01B2E0C4
:1004D000BA95F1F700C00E941501E2E0EA95F1F744
:1004E00000C08091020180618093020100C00E94DF
:1004F0000F01F2E0FA95F1F700C00E94150185EDB9
:100500008A95F1F7000060E088E00E94450160E014
:1005100081E00E94450160E086E00E94450160E0C4
:100520008CE00E94450160E081E00E9445018EE080
:1005300092E0909333028093320290933102809341
:10054000300280E092E090933502809334022AE8F2
:1005500031E03F932F9323E931E03F932F932FE92D
:1005600031E03F932F932BEB31E03F932F939F93F9
:100570008F930E940A048BE691E09F938F9384E708
:1005800091E09F938F93809135028F9380913402F5
:100590008F930E940A048CE591E09F938F93809142
:1005A00033028F93809132028F930E940A048EE46B
:1005B00091E00E94B901F0903202E09033020FB650
:1005C000F894DEBF0FBECDBF00E210E0ECE1CE2E0E
:1005D000E2E0DE2E1F930F93DF92CF92EF92FF9215
:1005E0000E94FA030F900F900F900F900F900F90B2
:1005F000892B89F00F5F1F4F0F37110559F78EE2D6
:1006000092E09F938F93EF92FF920E94FA030F90D4
:100610000F900F900F90FE01319680E8DF011D9240
:100620008A95E9F78F0180E081938F5F8038E1F749
:10063000D0903202C09033027E01B1E8EB0EF11C83
:1006400063E2A62E62E0B62E70E2872E72E0972E4D
:10065000F80181918F0190EE980F9F3500F51F9260
:100660008F939F928F92CF92DF920E94FA030F9006
:100670000F900F900F900F900F90892BA9F00E15EF
:100680001F0531F78EE292E09F938F93CF92DF9216
:100690000E94FA030F900F900F900F9005C01F92C9
:1006A0008F93BF92AF92DFCF00E911E020E2522E8C
:1006B0003EE2C32E31E0D32E40E2A42E42E0B42E1F
:1006C0005CE2852E52E0952E139A88EE93E0F801B5
:1006D0003197F1F70197D9F7D7015C92DF92CF926A
:1006E000809133028F93809132028F930E940A048B
:1006F000FF92EF92BF92AF92809131028F938091DF
:1007000030028F930E945F04F7018081282F082E0A
:10071000000C330B3F938F939F928F928091330203
:100720008F93809132028F930E94FA0360E080ECF5
:100730000E94450192E2692E91E0792E0FB6F8945D
:10074000DEBF0FBECDBFF3016591749141E050E073
:10075000C7010E94EC03892B11F5F3018591949157
:100760009F938F93809133028F93809132028F9366
:100770000E940A0460913202709133028AE090E094
:100780000E942704F301859194910E94B90161E0D0
:1007900080E20E9445010F900F900F900F9092E021
:1007A000690E711CAEE26A16A1E07A0609F0CBCFA1
:1007B00080E1682E712C61E080E20E944501B1E089
:1007C0006B1A7108C1F7139888EE93E0F80131971E
:1007D000F1F70197D9F778CFFB01DC014150504088
:1007E00030F08D910590801919F40020B9F7881B1D
:1007F000990B0895CF93DF93CDB7DEB7AE01465F77
:100800005F4F688579858E819F810E946F04DF919B
:10081000CF9108950F931F93CF93DF93CDB7DEB79A
:1008200008851985F801838188608383AE01445F60
:100830005F4F6A857B85C8010E946F04F8012381A0
:10084000277F2383DF91CF911F910F9108950F93FD
:100850001F93CF93DF93FB01238121FD03C08FEF13
:100860009FEF28C022FF16C0468157812481358121
:100870004217530744F4A081B1819D012F5F3F4F80
:10088000318320838C93268137812F5F3F4F3783BD
:10089000268310C0EB01092F182F0084F185E02D6D
:1008A0001995892BE1F68E819F8101969F838E8316
:1008B000812F902FDF91CF911F910F910895CF93AA
:1008C000DF93CDB7DEB7AE01465F5F4F68857985B0
:1008D0008E819F810E941E08DF91CF9108952F92F3
:1008E0003F924F925F926F927F928F929F92AF92C0
:1008F000BF92CF92DF92EF92FF920F931F93CF930D
:10090000DF93CDB7DEB72C970FB6F894DEBF0FBEDE
:10091000CDBF7C016B018A01FC01178216828381A5
:1009200081FFBDC1CE0101964C01F7019381F60113
:1009300093FD859193FF81916F01882309F4ABC1E9
:10094000853239F493FD859193FF81916F01853252
:1009500029F4B70190E00E942704E7CF512C312CF5
:1009600020E02032A0F48B3269F030F4803259F06C
:10097000833269F420612CC08D3239F0803339F430
:10098000216026C02260246023C0286021C027FD8A
:1009900027C030ED380F3A3078F426FF06C0FAE071
:1009A0005F9E300D1124532E13C08AE0389E300D07
:1009B0001124332E20620CC08E3221F426FD6BC12F
:1009C000206406C08C3611F4206802C0883641F4D9
:1009D000F60193FD859193FF81916F018111C1CF44
:1009E000982F9F7D9554933028F40C5F1F4FFFE3A1
:1009F000F9830DC0833631F0833771F0833509F008
:100A00005BC022C0F801808189830E5F1F4F4424A0
:100A10004394512C540115C03801F2E06F0E711C43
:100A2000F801A080B18026FF03C0652D70E002C0F0
:100A30006FEF7FEFC5012C870E946B092C018301AA
:100A40002C852F77222E17C03801F2E06F0E711C13
:100A5000F801A080B18026FF03C0652D70E002C0C0
:100A60006FEF7FEFC5012C870E9460092C012C8558
:100A70002068222E830123FC1BC0832D90E04816A2
:100A80005906B0F4B70180E290E00E9427043A943E
:100A9000F4CFF50127FC859127FE81915F01B70115
:100AA00090E00E94270431103A94F1E04F1A510867
:100AB0004114510471F7E5C0843611F0893639F5D7
:100AC000F80127FF07C060817181828193810C5FEB
:100AD0001F4F08C060817181072E000C880B990B95
:100AE0000E5F1F4F2F76722E97FF09C0909580954D
:100AF000709561957F4F8F4F9F4F2068722E2AE02F
:100B000030E0A4010E94CD09A82EA81844C0853762
:100B100029F42F7EB22E2AE030E025C0F22FF97F93
:100B2000BF2E8F36C1F018F4883579F0B4C0803705
:100B300019F0883721F0AFC02F2F2061B22EB4FEFC
:100B40000DC08B2D8460B82E09C024FF0AC09F2FD2
:100B50009660B92E06C028E030E005C020E130E004
:100B600002C020E132E0F801B7FE07C06081718168
:100B7000828193810C5F1F4F06C06081718180E08C
:100B800090E00E5F1F4FA4010E94CD09A82EA81867
:100B9000FB2DFF777F2E76FE0BC0372D3E7FA514F1
:100BA00050F474FE0AC072FC08C0372D3E7E05C0AA
:100BB000BA2C372D03C0BA2C01C0B52C34FF0DC0A0
:100BC000FE01EA0DF11D8081803311F4397E09C0E8
:100BD00032FF06C0B394B39404C0832F867809F023
:100BE000B39433FD13C030FF06C05A2CB31418F46D
:100BF000530C5B18B32CB31468F4B70180E290E097
:100C00003C870E942704B3943C85F5CFB31410F4BD
:100C10003B1801C0312C34FF12C0B70180E390E0D3
:100C20003C870E9427043C8532FF17C031FD03C07A
:100C300088E790E002C088E590E0B7010CC0832F00
:100C4000867859F031FF02C08BE201C080E237FDA7
:100C50008DE2B70190E00E942704A51438F4B70193
:100C600080E390E00E9427045A94F7CFAA94F401FD
:100C7000EA0DF11D8081B70190E00E942704A110C8
:100C8000F5CF332009F451CEB70180E290E00E9405
:100C900027043A94F6CFF7018681978102C08FEF3F
:100CA0009FEF2C960FB6F894DEBF0FBECDBFDF913D
:100CB000CF911F910F91FF90EF90DF90CF90BF9059
:100CC000AF909F908F907F906F905F904F903F90EC
:100CD0002F90089520FD09C0FC0123FD05C022FFCF
:100CE00002C07383628351834083089544FD10C022
:100CF00046FD10C0DB01FC01AA0FBB1FEE1FFF1F4A
:100D00001094D1F76A0F7B1F8E1F9F1F31E003C025
:100D100033E001C034E0660F771F881F991F315000
:100D2000D1F7620F711D811D911D08950F931F93BF
:100D3000CF93DF938C01C8010E947609EC0197FDE7
:100D400008C00E944C09892BB1F7B801CE010E945E
:100D5000B409CE01DF91CF911F910F9108958F9229
:100D60009F92AF92BF92CF92DF92EF92FF920F933A
:100D70001F93CF93DF931F92CDB7DEB78C01C62EA2
:100D80007A0129830E947609AC01552729814B32CB
:100D9000510521F04D32510569F42068CA94C11003
:100DA00002C080E076C0C80129830E9476092981AB
:100DB00097FDF7CF322F3D7FD32E322F307349F579
:100DC000803339F5BB24BA94BC0C09F44EC0C80179
:100DD00029830E947609298197FD47C0382F3F7DDE
:100DE000383569F48D2D8264D82ECA94CA94CC20EB
:100DF000E1F1C8010E94760997FF0BC036C026FFBB
:100E000004C02D2D2260D22E03C03D2D3261D32E81
:100E1000CB2C812C912C540120ED280F283080F010
:100E2000D4FE04C0B8010E94B4091CC02A3040F0AE
:100E3000D6FEF8CF2F7D3FEE320F363098F7275091
:100E40004D2DC501B4010E9476064B015C018D2D2C
:100E50008260D82ECA94CC2059F0C8010E9476092D
:100E600097FFDACFD1FC04C09CCF812C912C540188
:100E7000D7FE08C0B094A09490948094811C911CDB
:100E8000A11CB11C2D2DB501A401C7010E946A0649
:100E900081E00F90DF91CF911F910F91FF90EF9024
:100EA000DF90CF90BF90AF909F908F9008956F92FA
:100EB0007F928F929F92AF92BF92CF92DF92EF92EA
:100EC000FF920F931F93CF93DF93CDB7DEB7A19718
:100ED0000FB6F894DEBF0FBECDBF5C017A01CE0124
:100EE00001966C0180E2F60111928A95E9F7F5010D
:100EF000838040E050E0912C712C70E0A1E0B0E0E4
:100F0000F90183FC859183FE81918F01982F9F01C8
:100F1000811103C080E090E07CC08E3519F441154A
:100F2000510549F1E72FF0E0E417F5073CF48D3562
:100F300059F18D3219F4772001F103C0711001C00D
:100F4000982E892F8695869586958601080F111D06
:100F5000892F87703D0101C0660C8A95EAF7F80178
:100F6000808186298083991559F0991510F49F5F27
:100F7000E8CF9150E6CF71E004C07724739401C0AC
:100F8000712C4F5F5F4FBCCF772019F08E8180624C
:100F90008E83711103C09924939416C0F6019E01AB
:100FA0002F5D3F4F808180958193E217F307D1F742
:100FB000F2CFE114F10429F0F7018083C701019613
:100FC0007C016150912CF9F0C50169A30E9476095A
:100FD00069A197FD16C0282F269526952695F6011E
:100FE000E20FF11D208130E0AC014770552702C0AF
:100FF000359527954A95E2F720FDDBCFB5010E9494
:10100000B409911087CFE114F10411F0F7011082B7
:10101000C801A1960FB6F894DEBF0FBECDBFDF9119
:10102000CF911F910F91FF90EF90DF90CF90BF90E5
:10103000AF909F908F907F906F9008954F925F92A6
:101040007F928F929F92AF92BF92CF92DF92EF9258
:10105000FF920F931F93CF93DF931F92CDB7DEB70D
:101060006C012B015A01FC0117821682712CF601CA
:10107000F380F201F3FC8591F3FE8191382F2F016B
:10108000882309F4F3C090E039830E944C09398128
:10109000892B21F0C6010E949606E9CF353241F432
:1010A000F201F3FC3591F3FE31912F01353269F4F1
:1010B000C60139830E947609398197FDD5C038175A
:1010C000B1F2B6010E94B409D1C03A3239F4F3FC4E
:1010D0003591F3FE31912F0151E001C050E0420102
:1010E00010E020ED230F2A3090F45260612F70E061
:1010F00080E090E040E259830E947606162FF401CA
:10110000F3FC3591F3FE31914F015981EACF052F60
:10111000232F240151FF03C0111102C0A7C01FEFEC
:10112000383619F03C3659F011C0F401F3FC259122
:10113000F3FE21912F01283649F4052F0860046041
:10114000F201F3FC2591F3FE21912F01222309F4F2
:101150008DC0622F70E080EF90E029830E945509D6
:101160002981892B09F482C000FD07C0F501E080C8
:10117000F180C50102965C0102C0E12CF12C2E36F3
:1011800051F4F6014681578160E070E0202FC701DD
:101190000E946A066CCF233691F401FF11E0C6016C
:1011A0000E94760997FD60C0E114F10429F0F7016F
:1011B0008083C70101967C01115089F751C02B35FE
:1011C00059F49201A701612FC6010E9457072C0113
:1011D000892B09F045C03FC0C60129830E949606AD
:1011E000298197FD41C02F3659F128F4243631F179
:1011F000293649F127C0233769F02537F9F022C095
:10120000E114F10429F0F7018082C70101967C0105
:10121000115071F0C6010E9476094C0197FD08C07B
:101220000E944C09892B61F3B601C4010E94B409E4
:10123000E114F104A9F0F701108212C0006203C0AA
:10124000006101C00064202FA701612FC6010E9428
:10125000AF06811105C0F6018381807329F406C0B1
:1012600000FD05CF739403CF772019F0872D90E010
:1012700002C08FEF9FEF0F90DF91CF911F910F91E1
:10128000FF90EF90DF90CF90BF90AF909F908F90A6
:101290007F905F904F90089591110C942B0A8032AB
:1012A00019F089508550C8F70895FC01059006167D
:1012B00021F00020D9F7C00108953197CF0108959A
:1012C000FC010590615070400110D8F78095909511
:1012D0008E0F9F1F0895FC01615070400190011016
:1012E000D8F7809590958E0F9F1F0895CF93DF9329
:1012F000EC012B8120FF33C026FF0AC02F7B2B83FC
:101300008E819F8101969F838E838A8190E029C080
:1013100022FF0FC0E881F9818081082E000C990B13
:10132000009719F420622B831AC03196F983E88361
:101330000EC0EA85FB85199597FF09C02B810196A0
:1013400011F080E201C080E1822B8B8308C02E81E6
:101350003F812F5F3F4F3F832E83992702C08FEF3E
:101360009FEFDF91CF910895FB01238120FF12C0F1
:1013700026FD10C08F3F3FEF930761F082832F7DE2
:1013800020642383268137812150310937832683C6
:10139000992708958FEF9FEF0895FA01AA27283023
:1013A00051F1203181F1E8946F936E7F6E5F7F4F32
:1013B0008F4F9F4FAF4FB1E03ED0B4E03CD0670FAE
:1013C000781F891F9A1FA11D680F791F8A1F911D01
:1013D000A11D6A0F711D811D911DA11D20D009F451
:1013E00068943F912AE0269F11243019305D319393
:1013F000DEF6CF010895462F4770405D4193B3E07C
:101400000FD0C9F7F6CF462F4F70405D4A3318F022
:10141000495D31FD4052419302D0A9F7EACFB4E0D3
:10142000A6959795879577956795BA95C9F700978B
:101430006105710508959B01AC010A2E069457952C
:10144000479537952795BA95C9F7620F731F841F83
:10145000951FA01D0895992788270895F894FFCF18
:101460000000000300000000230100000000000055
:1014700000030000000034011B0100002563200070
:1014800025630022307825303278220025630A0057
:00000001FF
